{
  "contractName": "KeyrptoCrowdsale2",
  "abi": [
    {
      "constant": true,
      "inputs": [],
      "name": "hasClosed",
      "outputs": [
        {
          "name": "",
          "type": "bool"
        }
      ],
      "payable": false,
      "stateMutability": "view",
      "type": "function"
    },
    {
      "constant": true,
      "inputs": [],
      "name": "rate",
      "outputs": [
        {
          "name": "",
          "type": "uint256"
        }
      ],
      "payable": false,
      "stateMutability": "view",
      "type": "function"
    },
    {
      "constant": true,
      "inputs": [],
      "name": "weiRaised",
      "outputs": [
        {
          "name": "",
          "type": "uint256"
        }
      ],
      "payable": false,
      "stateMutability": "view",
      "type": "function"
    },
    {
      "constant": true,
      "inputs": [],
      "name": "closingTime",
      "outputs": [
        {
          "name": "",
          "type": "uint256"
        }
      ],
      "payable": false,
      "stateMutability": "view",
      "type": "function"
    },
    {
      "constant": true,
      "inputs": [],
      "name": "wallet",
      "outputs": [
        {
          "name": "",
          "type": "address"
        }
      ],
      "payable": false,
      "stateMutability": "view",
      "type": "function"
    },
    {
      "constant": true,
      "inputs": [],
      "name": "openingTime",
      "outputs": [
        {
          "name": "",
          "type": "uint256"
        }
      ],
      "payable": false,
      "stateMutability": "view",
      "type": "function"
    },
    {
      "constant": true,
      "inputs": [],
      "name": "remainingTokens",
      "outputs": [
        {
          "name": "",
          "type": "uint256"
        }
      ],
      "payable": false,
      "stateMutability": "view",
      "type": "function"
    },
    {
      "constant": true,
      "inputs": [],
      "name": "tokenWallet",
      "outputs": [
        {
          "name": "",
          "type": "address"
        }
      ],
      "payable": false,
      "stateMutability": "view",
      "type": "function"
    },
    {
      "constant": false,
      "inputs": [
        {
          "name": "_beneficiary",
          "type": "address"
        }
      ],
      "name": "buyTokens",
      "outputs": [],
      "payable": true,
      "stateMutability": "payable",
      "type": "function"
    },
    {
      "constant": true,
      "inputs": [],
      "name": "token",
      "outputs": [
        {
          "name": "",
          "type": "address"
        }
      ],
      "payable": false,
      "stateMutability": "view",
      "type": "function"
    },
    {
      "inputs": [
        {
          "name": "_openingTime",
          "type": "uint256"
        },
        {
          "name": "_closingTime",
          "type": "uint256"
        },
        {
          "name": "_rate",
          "type": "uint256"
        },
        {
          "name": "_wallet",
          "type": "address"
        },
        {
          "name": "_token",
          "type": "address"
        }
      ],
      "payable": false,
      "stateMutability": "nonpayable",
      "type": "constructor"
    },
    {
      "payable": true,
      "stateMutability": "payable",
      "type": "fallback"
    },
    {
      "anonymous": false,
      "inputs": [
        {
          "indexed": true,
          "name": "purchaser",
          "type": "address"
        },
        {
          "indexed": true,
          "name": "beneficiary",
          "type": "address"
        },
        {
          "indexed": false,
          "name": "value",
          "type": "uint256"
        },
        {
          "indexed": false,
          "name": "amount",
          "type": "uint256"
        }
      ],
      "name": "TokenPurchase",
      "type": "event"
    }
  ],
  "bytecode": "0x6060604052341561000f57600080fd5b60405160a0806106998339810160405280805191906020018051919060200180519190602001805191906020018051915082905085858583856000831161005557600080fd5b600160a060020a038216151561006a57600080fd5b600160a060020a038116151561007f57600080fd5b60029290925560018054600160a060020a03928316600160a060020a03199182161790915560008054929093169116179055428210156100be57600080fd5b818110156100cb57600080fd5b600491909155600555600160a060020a03811615156100e957600080fd5b60068054600160a060020a03909216600160a060020a0319909216919091179055505050505061057b8061011e6000396000f30060606040526004361061008a5763ffffffff60e060020a6000350416631515bc2b81146100955780632c4e722e146100bc5780634042b66f146100e15780634b6753bc146100f4578063521eb27314610107578063b7a8807c14610136578063bf58390314610149578063bff99c6c1461015c578063ec8ac4d81461016f578063fc0c546a14610183575b61009333610196565b005b34156100a057600080fd5b6100a861023e565b604051901515815260200160405180910390f35b34156100c757600080fd5b6100cf610247565b60405190815260200160405180910390f35b34156100ec57600080fd5b6100cf61024d565b34156100ff57600080fd5b6100cf610253565b341561011257600080fd5b61011a610259565b604051600160a060020a03909116815260200160405180910390f35b341561014157600080fd5b6100cf610268565b341561015457600080fd5b6100cf61026e565b341561016757600080fd5b61011a6102f5565b610093600160a060020a0360043516610196565b341561018e57600080fd5b61011a610304565b3460006101a38383610313565b6101ac82610340565b6003549091506101c2908363ffffffff61036016565b6003556101cf838261037a565b82600160a060020a031633600160a060020a03167f623b3804fa71d67900d064613da8f94b9617215ee90799290593e1745087ad18848460405191825260208201526040908101905180910390a3610227838361033c565b61022f610384565b610239838361033c565b505050565b60055442115b90565b60025481565b60035481565b60055481565b600154600160a060020a031681565b60045481565b60008054600654600160a060020a039182169163dd62ed3e911630846040516020015260405160e060020a63ffffffff8516028152600160a060020a03928316600482015291166024820152604401602060405180830381600087803b15156102d657600080fd5b6102c65a03f115156102e757600080fd5b505050604051805191505090565b600654600160a060020a031681565b600054600160a060020a031681565b600454421015801561032757506005544211155b151561033257600080fd5b61033c82826103ba565b5050565b600061035a61034d6103db565b839063ffffffff61047716565b92915050565b60008282018381101561036f57fe5b8091505b5092915050565b61033c82826104a2565b600154600160a060020a03163480156108fc0290604051600060405180830381858888f1935050505015156103b857600080fd5b565b600160a060020a03821615156103cf57600080fd5b80151561033c57600080fd5b600060045462093a800142101561041a576104136064610407607d60025461047790919063ffffffff16565b9063ffffffff61053816565b9050610244565b600454621baf8001421015610444576104136064610407607360025461047790919063ffffffff16565b600454622e24800142101561046e576104136064610407606e60025461047790919063ffffffff16565b50600254610244565b60008083151561048a5760009150610373565b5082820282848281151561049a57fe5b041461036f57fe5b60008054600654600160a060020a03918216926323b872dd9290911690859085906040516020015260405160e060020a63ffffffff8616028152600160a060020a0393841660048201529190921660248201526044810191909152606401602060405180830381600087803b151561051957600080fd5b6102c65a03f1151561052a57600080fd5b505050604051805150505050565b600080828481151561054657fe5b049493505050505600a165627a7a72305820b0d4fdebb6c579e14e9fe3327f5cdd375a0635f12b35df8ba8764d07fde25a1c0029",
  "source": "pragma solidity ^0.4.19;\n\nimport \"../node_modules/zeppelin-solidity/contracts/crowdsale/validation/TimedCrowdsale.sol\";\nimport \"../node_modules/zeppelin-solidity/contracts/crowdsale/emission/AllowanceCrowdsale.sol\";\n\ncontract KeyrptoCrowdsale2 is TimedCrowdsale, AllowanceCrowdsale {\n  function KeyrptoCrowdsale2(\n                  uint256 _openingTime,\n                  uint256 _closingTime,\n                  uint256 _rate,\n                  address _wallet,\n                  ERC20 _token) public\n    Crowdsale(_rate, _wallet, _token)\n    TimedCrowdsale(_openingTime, _closingTime)\n    AllowanceCrowdsale(_wallet)\n  {\n      // Empty constructor\n  }\n\n  /**\n   * @dev Extend parent behavior adding pricing tiers\n   * @param _weiAmount Amount of wei contributed\n   */\n  function _getTokenAmount(uint256 _weiAmount) internal view returns (uint256) {\n    return _weiAmount.mul(getRateIncludingBonus());\n  }\n  \n  function getRateIncludingBonus() internal view returns (uint256) {\n    if (now < openingTime + 1 weeks) {\n      return rate.mul(125).div(100);\n    } else if (now < openingTime + 3 weeks) {\n      return rate.mul(115).div(100);\n    } else if (now < openingTime + 5 weeks) {\n      return rate.mul(110).div(100);\n    } else {\n      return rate;\n    }\n  }\n}",
  "sourcePath": "/mnt/c/DEV/code/Argilis/keyrpto/contracts/KeyrptoCrowdsale2.sol",
  "compiler": {
    "name": "solc",
    "version": "0.4.19+commit.c4cbbb05.Emscripten.clang"
  },
  "schemaVersion": "2.0.0",
  "updatedAt": "2018-03-24T00:08:48.794Z"
}