{
  "contractName": "KeyrptoCrowdsale",
  "abi": [
    {
      "constant": true,
      "inputs": [],
      "name": "rate",
      "outputs": [
        {
          "name": "",
          "type": "uint256"
        }
      ],
      "payable": false,
      "stateMutability": "view",
      "type": "function"
    },
    {
      "constant": true,
      "inputs": [],
      "name": "endTime",
      "outputs": [
        {
          "name": "",
          "type": "uint256"
        }
      ],
      "payable": false,
      "stateMutability": "view",
      "type": "function"
    },
    {
      "constant": true,
      "inputs": [],
      "name": "weiRaised",
      "outputs": [
        {
          "name": "",
          "type": "uint256"
        }
      ],
      "payable": false,
      "stateMutability": "view",
      "type": "function"
    },
    {
      "constant": true,
      "inputs": [],
      "name": "mainStartTime",
      "outputs": [
        {
          "name": "",
          "type": "uint256"
        }
      ],
      "payable": false,
      "stateMutability": "view",
      "type": "function"
    },
    {
      "constant": false,
      "inputs": [],
      "name": "finalize",
      "outputs": [],
      "payable": false,
      "stateMutability": "nonpayable",
      "type": "function"
    },
    {
      "constant": true,
      "inputs": [],
      "name": "tokenSupplyCap",
      "outputs": [
        {
          "name": "",
          "type": "uint256"
        }
      ],
      "payable": false,
      "stateMutability": "view",
      "type": "function"
    },
    {
      "constant": true,
      "inputs": [],
      "name": "wallet",
      "outputs": [
        {
          "name": "",
          "type": "address"
        }
      ],
      "payable": false,
      "stateMutability": "view",
      "type": "function"
    },
    {
      "constant": false,
      "inputs": [
        {
          "name": "_rate",
          "type": "uint256"
        }
      ],
      "name": "updateRate",
      "outputs": [],
      "payable": false,
      "stateMutability": "nonpayable",
      "type": "function"
    },
    {
      "constant": true,
      "inputs": [],
      "name": "startTime",
      "outputs": [
        {
          "name": "",
          "type": "uint256"
        }
      ],
      "payable": false,
      "stateMutability": "view",
      "type": "function"
    },
    {
      "constant": true,
      "inputs": [],
      "name": "isFinalized",
      "outputs": [
        {
          "name": "",
          "type": "bool"
        }
      ],
      "payable": false,
      "stateMutability": "view",
      "type": "function"
    },
    {
      "constant": true,
      "inputs": [],
      "name": "owner",
      "outputs": [
        {
          "name": "",
          "type": "address"
        }
      ],
      "payable": false,
      "stateMutability": "view",
      "type": "function"
    },
    {
      "constant": false,
      "inputs": [
        {
          "name": "_address",
          "type": "address"
        }
      ],
      "name": "whitelist",
      "outputs": [],
      "payable": false,
      "stateMutability": "nonpayable",
      "type": "function"
    },
    {
      "constant": true,
      "inputs": [],
      "name": "extraTokensMintedDuringPresale",
      "outputs": [
        {
          "name": "",
          "type": "uint256"
        }
      ],
      "payable": false,
      "stateMutability": "view",
      "type": "function"
    },
    {
      "constant": true,
      "inputs": [
        {
          "name": "_address",
          "type": "address"
        }
      ],
      "name": "whitelisted",
      "outputs": [
        {
          "name": "",
          "type": "bool"
        }
      ],
      "payable": false,
      "stateMutability": "view",
      "type": "function"
    },
    {
      "constant": false,
      "inputs": [
        {
          "name": "_beneficiary",
          "type": "address"
        }
      ],
      "name": "buyTokens",
      "outputs": [],
      "payable": true,
      "stateMutability": "payable",
      "type": "function"
    },
    {
      "constant": true,
      "inputs": [],
      "name": "hasEnded",
      "outputs": [
        {
          "name": "",
          "type": "bool"
        }
      ],
      "payable": false,
      "stateMutability": "view",
      "type": "function"
    },
    {
      "constant": false,
      "inputs": [
        {
          "name": "newOwner",
          "type": "address"
        }
      ],
      "name": "transferOwnership",
      "outputs": [],
      "payable": false,
      "stateMutability": "nonpayable",
      "type": "function"
    },
    {
      "constant": false,
      "inputs": [
        {
          "name": "_address",
          "type": "address"
        }
      ],
      "name": "blacklist",
      "outputs": [],
      "payable": false,
      "stateMutability": "nonpayable",
      "type": "function"
    },
    {
      "constant": true,
      "inputs": [],
      "name": "token",
      "outputs": [
        {
          "name": "",
          "type": "address"
        }
      ],
      "payable": false,
      "stateMutability": "view",
      "type": "function"
    },
    {
      "inputs": [
        {
          "name": "_startTime",
          "type": "uint256"
        },
        {
          "name": "_mainStartTime",
          "type": "uint256"
        },
        {
          "name": "_endTime",
          "type": "uint256"
        },
        {
          "name": "_rate",
          "type": "uint256"
        },
        {
          "name": "_wallet",
          "type": "address"
        }
      ],
      "payable": false,
      "stateMutability": "nonpayable",
      "type": "constructor"
    },
    {
      "payable": true,
      "stateMutability": "payable",
      "type": "fallback"
    },
    {
      "anonymous": false,
      "inputs": [],
      "name": "Finalized",
      "type": "event"
    },
    {
      "anonymous": false,
      "inputs": [
        {
          "indexed": true,
          "name": "previousOwner",
          "type": "address"
        },
        {
          "indexed": true,
          "name": "newOwner",
          "type": "address"
        }
      ],
      "name": "OwnershipTransferred",
      "type": "event"
    },
    {
      "anonymous": false,
      "inputs": [
        {
          "indexed": true,
          "name": "purchaser",
          "type": "address"
        },
        {
          "indexed": true,
          "name": "beneficiary",
          "type": "address"
        },
        {
          "indexed": false,
          "name": "value",
          "type": "uint256"
        },
        {
          "indexed": false,
          "name": "amount",
          "type": "uint256"
        }
      ],
      "name": "TokenPurchase",
      "type": "event"
    }
  ],
  "bytecode": "0x60606040526006805460a060020a60ff0219169055341561001f57600080fd5b60405160a08062003150833981016040528080519190602001805191906020018051919060200180519190602001805191508590508383834284101561006457600080fd5b8383101561007157600080fd5b6000821161007e57600080fd5b600160a060020a038116151561009357600080fd5b6100a8640100000000610bc261020882021704565b60008054600160a060020a0319908116600160a060020a03938416179091556001959095556002939093556004919091556003805484169183169190911790556006805490921633909116179055838510801561010457508284105b151561010f57600080fd5b6008849055600054600160a060020a0316631525ff7d826040517c010000000000000000000000000000000000000000000000000000000063ffffffff8416028152600160a060020a039091166004820152602401600060405180830381600087803b151561017d57600080fd5b6102c65a03f1151561018e57600080fd5b5050600054600160a060020a03169050638456cb596040518163ffffffff167c0100000000000000000000000000000000000000000000000000000000028152600401600060405180830381600087803b15156101ea57600080fd5b6102c65a03f115156101fb57600080fd5b505050505050505061023e565b600061021261022d565b604051809103906000f080151561022857600080fd5b905090565b6040516111728062001fde83390190565b611d90806200024e6000396000f3006060604052600436106100ed5763ffffffff60e060020a6000350416632c4e722e81146100f25780633197cbb6146101175780634042b66f1461012a57806347eafefc1461013d5780634bb278f31461015057806352058d8a14610165578063521eb2731461017857806369ea1771146101a757806378e97925146101bd5780638d4e4083146101d05780638da5cb5b146101f75780639b19251a1461020a578063c2c7ca1d14610229578063d936547e1461023c578063ec8ac4d81461025b578063ecb70fb71461026f578063f2fde38b14610282578063f9f92be4146102a1578063fc0c546a146102c0575b600080fd5b34156100fd57600080fd5b6101056102d3565b60405190815260200160405180910390f35b341561012257600080fd5b6101056102d9565b341561013557600080fd5b6101056102df565b341561014857600080fd5b6101056102e5565b341561015b57600080fd5b6101636102eb565b005b341561017057600080fd5b6101056103ac565b341561018357600080fd5b61018b6103c0565b604051600160a060020a03909116815260200160405180910390f35b34156101b257600080fd5b6101636004356103cf565b34156101c857600080fd5b61010561040a565b34156101db57600080fd5b6101e3610410565b604051901515815260200160405180910390f35b341561020257600080fd5b61018b610431565b341561021557600080fd5b610163600160a060020a0360043516610440565b341561023457600080fd5b61010561047f565b341561024757600080fd5b6101e3600160a060020a0360043516610485565b610163600160a060020a03600435166104a3565b341561027a57600080fd5b6101e361066d565b341561028d57600080fd5b610163600160a060020a03600435166106f5565b34156102ac57600080fd5b610163600160a060020a0360043516610790565b34156102cb57600080fd5b61018b6107cc565b60045481565b60025481565b60055481565b60085481565b60065433600160a060020a0390811691161461030657600080fd5b60065474010000000000000000000000000000000000000000900460ff161561032e57600080fd5b61033661066d565b151561034157600080fd5b6103496107db565b7f6823b073d48d6e3a7d385eeb601452d680e74bb46afe3255a7d778f3a9b1768160405160405180910390a16006805474ff0000000000000000000000000000000000000000191674010000000000000000000000000000000000000000179055565b6009546b01a5dcb365fc4166be0000000190565b600354600160a060020a031681565b60065433600160a060020a039081169116146103ea57600080fd5b600081116103f757600080fd5b600254421061040557600080fd5b600455565b60015481565b60065474010000000000000000000000000000000000000000900460ff1681565b600654600160a060020a031681565b60065433600160a060020a0390811691161461045b57600080fd5b600160a060020a03166000908152600760205260409020805460ff19166001179055565b60095481565b600160a060020a031660009081526007602052604090205460ff1690565b600080600160a060020a03831615156104bb57600080fd5b3491506104d66104c9610909565b839063ffffffff61094b16565b90506104e28184610981565b15156104ed57600080fd5b6009541580156105025750610500610b26565b155b1561057e5760008054600591600160a060020a03909116906318160ddd90604051602001526040518163ffffffff1660e060020a028152600401602060405180830381600087803b151561055557600080fd5b6102c65a03f1151561056657600080fd5b5050506040518051905081151561057957fe5b046009555b600554610591908363ffffffff610b2e16565b60055560008054600160a060020a0316906340c10f1990859084906040516020015260405160e060020a63ffffffff8516028152600160a060020a0390921660048301526024820152604401602060405180830381600087803b15156105f657600080fd5b6102c65a03f1151561060757600080fd5b505050604051805190505082600160a060020a031633600160a060020a03167f623b3804fa71d67900d064613da8f94b9617215ee90799290593e1745087ad18848460405191825260208201526040908101905180910390a3610668610b3d565b505050565b6000806106786103ac565b60008054600160a060020a0316906318160ddd90604051602001526040518163ffffffff1660e060020a028152600401602060405180830381600087803b15156106c157600080fd5b6102c65a03f115156106d257600080fd5b505050604051805190501015905080806106ef57506106ef610b73565b91505090565b60065433600160a060020a0390811691161461071057600080fd5b600160a060020a038116151561072557600080fd5b600654600160a060020a0380831691167f8be0079c531659141344cd1fd0a4f28419497f9722a3daafe3b4186f6b6457e060405160405180910390a36006805473ffffffffffffffffffffffffffffffffffffffff1916600160a060020a0392909216919091179055565b60065433600160a060020a039081169116146107ab57600080fd5b600160a060020a03166000908152600760205260409020805460ff19169055565b600054600160a060020a031681565b600054600954600160a060020a0390911690635c27cdc39060405160e060020a63ffffffff84160281526004810191909152602401600060405180830381600087803b151561082957600080fd5b6102c65a03f1151561083a57600080fd5b505060008054600160a060020a03169150637d64bcb490604051602001526040518163ffffffff1660e060020a028152600401602060405180830381600087803b151561088657600080fd5b6102c65a03f1151561089757600080fd5b50505060405180515050600054600354600160a060020a039182169163f2fde38b911660405160e060020a63ffffffff8416028152600160a060020a039091166004820152602401600060405180830381600087803b15156108f857600080fd5b6102c65a03f1151561066857600080fd5b6000610913610b26565b61091f57600454610946565b610946600461093a600560045461094b90919063ffffffff16565b9063ffffffff610b7b16565b905090565b60008083151561095e576000915061097a565b5082820282848281151561096e57fe5b041461097657fe5b8091505b5092915050565b600080548190819081908190819081908990600160a060020a03166318160ddd83604051602001526040518163ffffffff1660e060020a028152600401602060405180830381600087803b15156109d757600080fd5b6102c65a03f115156109e857600080fd5b505050604051805190500195506109fd610b26565b15610acf57610a236801158e460913d00000610a17610909565b9063ffffffff61094b16565b600080548b91600160a060020a03909116906370a08231908c906040516020015260405160e060020a63ffffffff8416028152600160a060020a039091166004820152602401602060405180830381600087803b1515610a8257600080fd5b6102c65a03f11515610a9357600080fd5b505050604051805190500111159450670de0b6b3a76400006303b9aca0028611159350841580610ac1575083155b15610acf5760009650610b1a565b67016345785d8a00003410159250610ae633610485565b9150610af06103ac565b8611159050828015610aff5750815b8015610b085750805b8015610b175750610b17610b92565b96505b50505050505092915050565b600854421090565b60008282018381101561097657fe5b600354600160a060020a03163480156108fc0290604051600060405180830381858888f193505050501515610b7157600080fd5b565b600254421190565b6000808284811515610b8957fe5b04949350505050565b60008060006001544210158015610bab57506002544211155b915050341515818015610bbb5750805b9250505090565b6000610bcc610be2565b604051809103906000f080151561094657600080fd5b60405161117280610bf38339019056006060604052600380546004805460a060020a60ff0219169055600160b060020a03191633600160a060020a03161790556111348061003e6000396000f3006060604052600436106101485763ffffffff7c010000000000000000000000000000000000000000000000000000000060003504166305d2035b811461014d57806306fdde0314610174578063095ea7b3146101fe5780631525ff7d1461022057806318160ddd1461024157806322cb1ec81461026657806323b872dd14610279578063313ce567146102a157806338b9499b146102ca5780633f4ba83a146102dd57806340c10f19146102f057806359927044146103125780635c27cdc3146103415780635c975abb14610357578063661884631461036a57806370a082311461038c5780637d64bcb4146103ab5780638456cb59146103be5780638da5cb5b146103d157806395d89b41146103e45780639dc29fac146103f7578063a9059cbb14610419578063d73dd6231461043b578063dd62ed3e1461045d578063f2fde38b14610482575b600080fd5b341561015857600080fd5b6101606104a1565b604051901515815260200160405180910390f35b341561017f57600080fd5b6101876104b1565b60405160208082528190810183818151815260200191508051906020019080838360005b838110156101c35780820151838201526020016101ab565b50505050905090810190601f1680156101f05780820380516001836020036101000a031916815260200191505b509250505060405180910390f35b341561020957600080fd5b610160600160a060020a03600435166024356104e8565b341561022b57600080fd5b61023f600160a060020a0360043516610554565b005b341561024c57600080fd5b6102546105e0565b60405190815260200160405180910390f35b341561027157600080fd5b6101606105e6565b341561028457600080fd5b610160600160a060020a03600435811690602435166044356105f6565b34156102ac57600080fd5b6102b4610638565b60405160ff909116815260200160405180910390f35b34156102d557600080fd5b61025461063d565b34156102e857600080fd5b61023f610643565b34156102fb57600080fd5b610160600160a060020a036004351660243561068e565b341561031d57600080fd5b61032561079b565b604051600160a060020a03909116815260200160405180910390f35b341561034c57600080fd5b61023f6004356107aa565b341561036257600080fd5b61016061084b565b341561037557600080fd5b610160600160a060020a036004351660243561085b565b341561039757600080fd5b610254600160a060020a0360043516610957565b34156103b657600080fd5b610160610972565b34156103c957600080fd5b61023f6109fe565b34156103dc57600080fd5b610325610a83565b34156103ef57600080fd5b610187610a92565b341561040257600080fd5b61023f600160a060020a0360043516602435610ac9565b341561042457600080fd5b610160600160a060020a0360043516602435610ba3565b341561044657600080fd5b610160600160a060020a0360043516602435610be3565b341561046857600080fd5b610254600160a060020a0360043581169060243516610c87565b341561048d57600080fd5b61023f600160a060020a0360043516610cb2565b60035460a060020a900460ff1681565b60408051908101604052600d81527f4b65797270746f20546f6b656e00000000000000000000000000000000000000602082015281565b600160a060020a03338116600081815260026020908152604080832094871680845294909152808220859055909291907f8c5be1e5ebec7d5bd14f71427d1e84f3dd0314c0f7b2291e5b200ac8c7c3b9259085905190815260200160405180910390a350600192915050565b60035433600160a060020a0390811691161461056f57600080fd5b60035460a060020a900460ff161561058657600080fd5b600454600160a060020a03161561059c57600080fd5b600160a060020a03811615156105b157600080fd5b6004805473ffffffffffffffffffffffffffffffffffffffff1916600160a060020a0392909216919091179055565b60005481565b60045460a060020a900460ff1681565b60035460009060a860020a900460ff161561061057600080fd5b61061a8483610d4d565b151561062557600080fd5b610630848484610d9d565b949350505050565b601281565b60055481565b60035433600160a060020a0390811691161461065e57600080fd5b60035460a860020a900460ff16151561067657600080fd5b600554151561068457426005555b61068c610f1f565b565b60035460009033600160a060020a039081169116146106ac57600080fd5b60035460a060020a900460ff16156106c357600080fd5b6000546106d6908363ffffffff610f9f16565b6000908155600160a060020a038416815260016020526040902054610701908363ffffffff610f9f16565b600160a060020a0384166000818152600160205260409081902092909255907f0f6798a560793a54c3bcfe86a93cde1e73087d944c0ea20544137d41213968859084905190815260200160405180910390a2600160a060020a03831660007fddf252ad1be2c89b69c2b068fc378daa952ba7f163c4a11628f55a4df523b3ef8460405190815260200160405180910390a350600192915050565b600454600160a060020a031681565b60035433600160a060020a039081169116146107c557600080fd5b60035460a060020a900460ff16156107dc57600080fd5b60045460a060020a900460ff16156107f357600080fd5b6004805474ff0000000000000000000000000000000000000000191660a060020a179081905561084790600160a060020a03166108426b0195518939d43ed62a0000008463ffffffff610fae16565b61068e565b5050565b60035460a860020a900460ff1681565b600160a060020a033381166000908152600260209081526040808320938616835292905290812054808311156108b857600160a060020a0333811660009081526002602090815260408083209388168352929052908120556108ef565b6108c8818463ffffffff610fae16565b600160a060020a033381166000908152600260209081526040808320938916835292905220555b600160a060020a0333811660008181526002602090815260408083209489168084529490915290819020547f8c5be1e5ebec7d5bd14f71427d1e84f3dd0314c0f7b2291e5b200ac8c7c3b925915190815260200160405180910390a3600191505b5092915050565b600160a060020a031660009081526001602052604090205490565b60035460009033600160a060020a0390811691161461099057600080fd5b60035460a060020a900460ff16156109a757600080fd5b6003805474ff0000000000000000000000000000000000000000191660a060020a1790557fae5184fba832cb2b1f702aca6117b8d265eaf03ad33eb133f19dde0f5920fa0860405160405180910390a15060015b90565b60035433600160a060020a03908116911614610a1957600080fd5b60035460a860020a900460ff1615610a3057600080fd5b6003805475ff000000000000000000000000000000000000000000191660a860020a1790557f6985a02210a168e66602d3235cb6db0e70f92b3ba4d376a33c0f3d9434bff62560405160405180910390a1565b600354600160a060020a031681565b60408051908101604052600381527f4b59540000000000000000000000000000000000000000000000000000000000602082015281565b60035433600160a060020a03908116911614610ae457600080fd5b600160a060020a038216600090815260016020526040902054811115610b0957600080fd5b600160a060020a038216600090815260016020526040902054610b32908263ffffffff610fae16565b600160a060020a03831660009081526001602052604081209190915554610b5f908263ffffffff610fae16565b600055600160a060020a0382167fcc16f5dbb4873280815c1ee09dbd06736cffcc184412cf7a71a0fdb75d397ca58260405190815260200160405180910390a25050565b60035460009060a860020a900460ff1615610bbd57600080fd5b610bc73383610d4d565b1515610bd257600080fd5b610bdc8383610fc0565b9392505050565b600160a060020a033381166000908152600260209081526040808320938616835292905290812054610c1b908363ffffffff610f9f16565b600160a060020a0333811660008181526002602090815260408083209489168084529490915290819020849055919290917f8c5be1e5ebec7d5bd14f71427d1e84f3dd0314c0f7b2291e5b200ac8c7c3b92591905190815260200160405180910390a350600192915050565b600160a060020a03918216600090815260026020908152604080832093909416825291909152205490565b60035433600160a060020a03908116911614610ccd57600080fd5b600160a060020a0381161515610ce257600080fd5b600354600160a060020a0380831691167f8be0079c531659141344cd1fd0a4f28419497f9722a3daafe3b4186f6b6457e060405160405180910390a36003805473ffffffffffffffffffffffffffffffffffffffff1916600160a060020a0392909216919091179055565b6004546000908190600160a060020a03858116911614610d705760019150610950565b610d8983610d7d86610957565b9063ffffffff610fae16565b9050610d936110bb565b9010159392505050565b6000600160a060020a0383161515610db457600080fd5b600160a060020a038416600090815260016020526040902054821115610dd957600080fd5b600160a060020a0380851660009081526002602090815260408083203390941683529290522054821115610e0c57600080fd5b600160a060020a038416600090815260016020526040902054610e35908363ffffffff610fae16565b600160a060020a038086166000908152600160205260408082209390935590851681522054610e6a908363ffffffff610f9f16565b600160a060020a03808516600090815260016020908152604080832094909455878316825260028152838220339093168252919091522054610eb2908363ffffffff610fae16565b600160a060020a03808616600081815260026020908152604080832033861684529091529081902093909355908516917fddf252ad1be2c89b69c2b068fc378daa952ba7f163c4a11628f55a4df523b3ef9085905190815260200160405180910390a35060019392505050565b60035433600160a060020a03908116911614610f3a57600080fd5b60035460a860020a900460ff161515610f5257600080fd5b6003805475ff000000000000000000000000000000000000000000191690557f7805862f689e2f13df9f062ff482ad3ad112aca9e0847911ed832e158c525b3360405160405180910390a1565b600082820183811015610bdc57fe5b600082821115610fba57fe5b50900390565b6000600160a060020a0383161515610fd757600080fd5b600160a060020a033316600090815260016020526040902054821115610ffc57600080fd5b600160a060020a033316600090815260016020526040902054611025908363ffffffff610fae16565b600160a060020a03338116600090815260016020526040808220939093559085168152205461105a908363ffffffff610f9f16565b600160a060020a0380851660008181526001602052604090819020939093559133909116907fddf252ad1be2c89b69c2b068fc378daa952ba7f163c4a11628f55a4df523b3ef9085905190815260200160405180910390a350600192915050565b600060055462eff100014210156110de57506af8277896582678ac0000006109fb565b6005546301e133800142101561110057506aa56fa5b99019a5c80000006109fb565b5060006109fb5600a165627a7a72305820795c4d2edea88b7184c47b9fd75caf8886345cb962224925bd1d3d17a5c7f0720029a165627a7a72305820b1359aad04b510d803942b3ad973f11d61940342ffccf50661af8107a6fcf06c00296060604052600380546004805460a060020a60ff0219169055600160b060020a03191633600160a060020a03161790556111348061003e6000396000f3006060604052600436106101485763ffffffff7c010000000000000000000000000000000000000000000000000000000060003504166305d2035b811461014d57806306fdde0314610174578063095ea7b3146101fe5780631525ff7d1461022057806318160ddd1461024157806322cb1ec81461026657806323b872dd14610279578063313ce567146102a157806338b9499b146102ca5780633f4ba83a146102dd57806340c10f19146102f057806359927044146103125780635c27cdc3146103415780635c975abb14610357578063661884631461036a57806370a082311461038c5780637d64bcb4146103ab5780638456cb59146103be5780638da5cb5b146103d157806395d89b41146103e45780639dc29fac146103f7578063a9059cbb14610419578063d73dd6231461043b578063dd62ed3e1461045d578063f2fde38b14610482575b600080fd5b341561015857600080fd5b6101606104a1565b604051901515815260200160405180910390f35b341561017f57600080fd5b6101876104b1565b60405160208082528190810183818151815260200191508051906020019080838360005b838110156101c35780820151838201526020016101ab565b50505050905090810190601f1680156101f05780820380516001836020036101000a031916815260200191505b509250505060405180910390f35b341561020957600080fd5b610160600160a060020a03600435166024356104e8565b341561022b57600080fd5b61023f600160a060020a0360043516610554565b005b341561024c57600080fd5b6102546105e0565b60405190815260200160405180910390f35b341561027157600080fd5b6101606105e6565b341561028457600080fd5b610160600160a060020a03600435811690602435166044356105f6565b34156102ac57600080fd5b6102b4610638565b60405160ff909116815260200160405180910390f35b34156102d557600080fd5b61025461063d565b34156102e857600080fd5b61023f610643565b34156102fb57600080fd5b610160600160a060020a036004351660243561068e565b341561031d57600080fd5b61032561079b565b604051600160a060020a03909116815260200160405180910390f35b341561034c57600080fd5b61023f6004356107aa565b341561036257600080fd5b61016061084b565b341561037557600080fd5b610160600160a060020a036004351660243561085b565b341561039757600080fd5b610254600160a060020a0360043516610957565b34156103b657600080fd5b610160610972565b34156103c957600080fd5b61023f6109fe565b34156103dc57600080fd5b610325610a83565b34156103ef57600080fd5b610187610a92565b341561040257600080fd5b61023f600160a060020a0360043516602435610ac9565b341561042457600080fd5b610160600160a060020a0360043516602435610ba3565b341561044657600080fd5b610160600160a060020a0360043516602435610be3565b341561046857600080fd5b610254600160a060020a0360043581169060243516610c87565b341561048d57600080fd5b61023f600160a060020a0360043516610cb2565b60035460a060020a900460ff1681565b60408051908101604052600d81527f4b65797270746f20546f6b656e00000000000000000000000000000000000000602082015281565b600160a060020a03338116600081815260026020908152604080832094871680845294909152808220859055909291907f8c5be1e5ebec7d5bd14f71427d1e84f3dd0314c0f7b2291e5b200ac8c7c3b9259085905190815260200160405180910390a350600192915050565b60035433600160a060020a0390811691161461056f57600080fd5b60035460a060020a900460ff161561058657600080fd5b600454600160a060020a03161561059c57600080fd5b600160a060020a03811615156105b157600080fd5b6004805473ffffffffffffffffffffffffffffffffffffffff1916600160a060020a0392909216919091179055565b60005481565b60045460a060020a900460ff1681565b60035460009060a860020a900460ff161561061057600080fd5b61061a8483610d4d565b151561062557600080fd5b610630848484610d9d565b949350505050565b601281565b60055481565b60035433600160a060020a0390811691161461065e57600080fd5b60035460a860020a900460ff16151561067657600080fd5b600554151561068457426005555b61068c610f1f565b565b60035460009033600160a060020a039081169116146106ac57600080fd5b60035460a060020a900460ff16156106c357600080fd5b6000546106d6908363ffffffff610f9f16565b6000908155600160a060020a038416815260016020526040902054610701908363ffffffff610f9f16565b600160a060020a0384166000818152600160205260409081902092909255907f0f6798a560793a54c3bcfe86a93cde1e73087d944c0ea20544137d41213968859084905190815260200160405180910390a2600160a060020a03831660007fddf252ad1be2c89b69c2b068fc378daa952ba7f163c4a11628f55a4df523b3ef8460405190815260200160405180910390a350600192915050565b600454600160a060020a031681565b60035433600160a060020a039081169116146107c557600080fd5b60035460a060020a900460ff16156107dc57600080fd5b60045460a060020a900460ff16156107f357600080fd5b6004805474ff0000000000000000000000000000000000000000191660a060020a179081905561084790600160a060020a03166108426b0195518939d43ed62a0000008463ffffffff610fae16565b61068e565b5050565b60035460a860020a900460ff1681565b600160a060020a033381166000908152600260209081526040808320938616835292905290812054808311156108b857600160a060020a0333811660009081526002602090815260408083209388168352929052908120556108ef565b6108c8818463ffffffff610fae16565b600160a060020a033381166000908152600260209081526040808320938916835292905220555b600160a060020a0333811660008181526002602090815260408083209489168084529490915290819020547f8c5be1e5ebec7d5bd14f71427d1e84f3dd0314c0f7b2291e5b200ac8c7c3b925915190815260200160405180910390a3600191505b5092915050565b600160a060020a031660009081526001602052604090205490565b60035460009033600160a060020a0390811691161461099057600080fd5b60035460a060020a900460ff16156109a757600080fd5b6003805474ff0000000000000000000000000000000000000000191660a060020a1790557fae5184fba832cb2b1f702aca6117b8d265eaf03ad33eb133f19dde0f5920fa0860405160405180910390a15060015b90565b60035433600160a060020a03908116911614610a1957600080fd5b60035460a860020a900460ff1615610a3057600080fd5b6003805475ff000000000000000000000000000000000000000000191660a860020a1790557f6985a02210a168e66602d3235cb6db0e70f92b3ba4d376a33c0f3d9434bff62560405160405180910390a1565b600354600160a060020a031681565b60408051908101604052600381527f4b59540000000000000000000000000000000000000000000000000000000000602082015281565b60035433600160a060020a03908116911614610ae457600080fd5b600160a060020a038216600090815260016020526040902054811115610b0957600080fd5b600160a060020a038216600090815260016020526040902054610b32908263ffffffff610fae16565b600160a060020a03831660009081526001602052604081209190915554610b5f908263ffffffff610fae16565b600055600160a060020a0382167fcc16f5dbb4873280815c1ee09dbd06736cffcc184412cf7a71a0fdb75d397ca58260405190815260200160405180910390a25050565b60035460009060a860020a900460ff1615610bbd57600080fd5b610bc73383610d4d565b1515610bd257600080fd5b610bdc8383610fc0565b9392505050565b600160a060020a033381166000908152600260209081526040808320938616835292905290812054610c1b908363ffffffff610f9f16565b600160a060020a0333811660008181526002602090815260408083209489168084529490915290819020849055919290917f8c5be1e5ebec7d5bd14f71427d1e84f3dd0314c0f7b2291e5b200ac8c7c3b92591905190815260200160405180910390a350600192915050565b600160a060020a03918216600090815260026020908152604080832093909416825291909152205490565b60035433600160a060020a03908116911614610ccd57600080fd5b600160a060020a0381161515610ce257600080fd5b600354600160a060020a0380831691167f8be0079c531659141344cd1fd0a4f28419497f9722a3daafe3b4186f6b6457e060405160405180910390a36003805473ffffffffffffffffffffffffffffffffffffffff1916600160a060020a0392909216919091179055565b6004546000908190600160a060020a03858116911614610d705760019150610950565b610d8983610d7d86610957565b9063ffffffff610fae16565b9050610d936110bb565b9010159392505050565b6000600160a060020a0383161515610db457600080fd5b600160a060020a038416600090815260016020526040902054821115610dd957600080fd5b600160a060020a0380851660009081526002602090815260408083203390941683529290522054821115610e0c57600080fd5b600160a060020a038416600090815260016020526040902054610e35908363ffffffff610fae16565b600160a060020a038086166000908152600160205260408082209390935590851681522054610e6a908363ffffffff610f9f16565b600160a060020a03808516600090815260016020908152604080832094909455878316825260028152838220339093168252919091522054610eb2908363ffffffff610fae16565b600160a060020a03808616600081815260026020908152604080832033861684529091529081902093909355908516917fddf252ad1be2c89b69c2b068fc378daa952ba7f163c4a11628f55a4df523b3ef9085905190815260200160405180910390a35060019392505050565b60035433600160a060020a03908116911614610f3a57600080fd5b60035460a860020a900460ff161515610f5257600080fd5b6003805475ff000000000000000000000000000000000000000000191690557f7805862f689e2f13df9f062ff482ad3ad112aca9e0847911ed832e158c525b3360405160405180910390a1565b600082820183811015610bdc57fe5b600082821115610fba57fe5b50900390565b6000600160a060020a0383161515610fd757600080fd5b600160a060020a033316600090815260016020526040902054821115610ffc57600080fd5b600160a060020a033316600090815260016020526040902054611025908363ffffffff610fae16565b600160a060020a03338116600090815260016020526040808220939093559085168152205461105a908363ffffffff610f9f16565b600160a060020a0380851660008181526001602052604090819020939093559133909116907fddf252ad1be2c89b69c2b068fc378daa952ba7f163c4a11628f55a4df523b3ef9085905190815260200160405180910390a350600192915050565b600060055462eff100014210156110de57506af8277896582678ac0000006109fb565b6005546301e133800142101561110057506aa56fa5b99019a5c80000006109fb565b5060006109fb5600a165627a7a72305820795c4d2edea88b7184c47b9fd75caf8886345cb962224925bd1d3d17a5c7f0720029",
  "source": "pragma solidity ^0.4.18;\n\nimport \"../node_modules/zeppelin-solidity/contracts/crowdsale/FinalizableCrowdsale.sol\";\nimport \"../node_modules/zeppelin-solidity/contracts/token/MintableToken.sol\";\nimport \"./KeyrptoToken.sol\";\n\ncontract KeyrptoCrowdsale is FinalizableCrowdsale {\n  uint256 internal constant ONE_TOKEN = 1e18;\n  uint256 internal constant MILLION_TOKENS = 1e6 * ONE_TOKEN;\n\n  mapping (address => bool) public whitelist;\n\n  uint256 public mainStartTime;\n  uint256 public extraTokensMintedDuringPresale;\n\n  function KeyrptoCrowdsale(\n                  uint256 _startTime,\n                  uint256 _mainStartTime,\n                  uint256 _endTime,\n                  uint256 _rate,\n                  address _wallet) public\n    Crowdsale(_startTime, _endTime, _rate, _wallet)\n  {\n    require(_startTime < _mainStartTime && _mainStartTime < _endTime);\n\n    mainStartTime = _mainStartTime;\n\n    KeyrptoToken(token).setTeamWallet(_wallet);\n    KeyrptoToken(token).pause();\n  }\n\n  function createTokenContract() internal returns (MintableToken) {\n    return new KeyrptoToken();\n  }\n\n  /*\n   * Disable fallback function\n   */\n  function() external payable {\n    revert();\n  }\n\n  function updateRate(uint256 _rate) external onlyOwner {\n    require(_rate > 0);\n    require(now < endTime);\n\n    rate = _rate;\n  }\n\n  function whitelist(address _address) external onlyOwner {\n    whitelist[_address] = true;\n  }\n\n  function blacklist(address _address) external onlyOwner {\n    delete whitelist[_address];\n  }\n\n  /*\n   * @overrides Crowdsale#buyTokens\n   * Changes:\n   * - Pass number of tokens to be created and beneficiary for purchase validation\n   * - After presale has ended, record number of extra tokens minted during presale\n   */\n  function buyTokens(address _beneficiary) public payable {\n    require(_beneficiary != address(0));\n\n    uint256 weiAmount = msg.value;\n    uint256 tokens = weiAmount.mul(getRate());\n\n    require(validPurchase(tokens, _beneficiary));\n\n    if (extraTokensMintedDuringPresale == 0 && !presale()) {\n      extraTokensMintedDuringPresale = token.totalSupply() / 5;\n    }\n\n    // update state\n    weiRaised = weiRaised.add(weiAmount);\n\n    token.mint(_beneficiary, tokens);\n    TokenPurchase(msg.sender, _beneficiary, weiAmount, tokens);\n\n    forwardFunds();\n  }\n\n  /*\n   * @overrides Crowdsale#validPurchase\n   * Changes:\n   * - Added restriction to sell only to whitelisted addresses\n   * - Added minimum purchase amount of 0.1 ETH\n   * - Added presale restriction: max contribution of 20 ETH per address\n   * - Added presale restriction: max total supply of 62.5M KYT\n   */\n  function validPurchase(uint256 _tokens, address _beneficiary) internal view returns (bool) {\n    uint256 totalSupplyAfterTransaction = token.totalSupply() + _tokens;\n\n    if (presale()) {\n      bool withinPerAddressLimit = (token.balanceOf(_beneficiary) + _tokens) <= getRate().mul(20 ether);\n      bool withinTotalSupplyLimit = totalSupplyAfterTransaction <= 62500000 * ONE_TOKEN;\n      if (!withinPerAddressLimit || !withinTotalSupplyLimit) {\n        return false;\n      }\n    }\n\n    bool aboveMinContribution = msg.value >= 100 finney;\n    bool whitelistedSender = whitelisted(msg.sender);\n    bool withinCap = totalSupplyAfterTransaction <= tokenSupplyCap();\n    return aboveMinContribution && whitelistedSender && withinCap && super.validPurchase();\n  }\n\n  function whitelisted(address _address) public view returns (bool) {\n    return whitelist[_address];\n  }\n\n  function getRate() internal view returns (uint256) {\n    return presale() ? rate.mul(5).div(4) : rate;\n  }\n\n  function presale() internal view returns (bool) {\n    return now < mainStartTime;\n  }\n\n  /*\n   * @overrides Crowdsale#hasEnded\n   * Changes:\n   * - Added token cap logic based on token supply\n   */\n  function hasEnded() public view returns (bool) {\n    bool capReached = token.totalSupply() >= tokenSupplyCap();\n    return capReached || super.hasEnded();\n  }\n\n  function tokenSupplyCap() public view returns (uint256) {\n    return 510 * MILLION_TOKENS + extraTokensMintedDuringPresale;\n  }\n\n  function finalization() internal {\n    KeyrptoToken(token).mintTeamTokens(extraTokensMintedDuringPresale);\n    token.finishMinting();\n    token.transferOwnership(wallet);\n  }\n}",
  "sourcePath": "/mnt/c/DEV/code/Argilis/keyrpto/contracts/KeyrptoCrowdsale.sol",
  "compiler": {
    "name": "solc",
    "version": "0.4.18+commit.9cf6e910.Emscripten.clang"
  },
  "schemaVersion": "1.0.1",
  "updatedAt": "2018-01-18T09:43:03.925Z"
}